:100000000C94C7020C94EF020C94EF020C94EF02D4
:100010000C94EF020C94EF020C94EF020C94EF029C
:100020000C94EF020C94EF020C94EF020C94EF028C
:100030000C94EF020C94EF020C94EF020C94EF027C
:100040000C94A7240C94EF020C949B270C94CD27BE
:100050000C94EF020C94EF020C94EF020C94EF025C
:100060000C94560B0C94EF028605830580057D05E4
:100070007A057705740571056E056B0568056505DC
:1000800062055F055C055905747769206163632E1D
:100090002E00737069206163632E2E0020205A3A6F
:1000A00020002020593A2000583A20006E6F74201A
:1000B000646574656374656400696E697420616366
:1000C000632E2E00657272006572726F72206F70FF
:1000D000656E696E672074696D652E74787400773B
:1000E000726974652074696D652E7478742E2E2E75
:1000F000000A46696C657320666F756E64206F6ECA
:1001000020746865206361726420286E616D652CBF
:10011000206461746520616E642073697A6520696A
:100120006E206279746573293A2000566F6C756D84
:10013000652073697A6520284D6279746573293A60
:100140002000566F6C756D652073697A6520284BA9
:100150006279746573293A2000566F6C756D65205D
:1001600073697A6520286279746573293A20000AD8
:10017000566F6C756D6520747970652069732046C3
:10018000415400436F756C64206E6F742066696E15
:10019000642046415431362F464154333220706139
:1001A00072746974696F6E2E0A4D616B6520737588
:1001B000726520796F7527766520666F726D617440
:1001C00074656420746865206361726400556E6BA9
:1001D0006E6F776E005344484300534432005344DB
:1001E00031000A4361726420747970653A200057C7
:1001F0006972696E6720697320636F7272656374D8
:1002000020616E64206120636172642069732070D4
:10021000726573656E742E002A2064696420796F9C
:1002200075206368616E676520746865206368691E
:100230007053656C6563742070696E20746F206DF7
:100240006174636820796F757220736869656C6486
:10025000206F72206D6F64756C653F002A20697392
:1002600020796F757220776972696E6720636F728B
:10027000726563743F002A20697320612063617294
:100280006420696E7365727465643F00696E697499
:1002900069616C697A6174696F6E206661696C6509
:1002A000642E205468696E677320746F20636865DC
:1002B000636B3A000A496E697469616C697A696EA8
:1002C0006720534420636172642E2E2E00646F6E8B
:1002D00065007372616D20746573743A0052616ECB
:1002E00067653A2020202020202020202B2F2D2041
:1002F000004461746120526174653A20202020001E
:100300002D2D2D2D2D2D2D2D2D2D2D2D2D2D2D2D1D
:100310002D2D2D2D2D2D2D2D2D2D2D2D2D2D2D2D0D
:100320002D2D2D2D00206D2F735E32005265736FC1
:100330006C7574696F6E3A20202000206D2F735EFB
:1003400032004D696E2056616C75653A2020202080
:1003500000206D2F735E32004D61782056616C7500
:10036000653A2020202000556E697175652049444A
:100370003A2020202000447269766572205665720A
:100380003A2020200053656E736F723A202020209F
:1003900020202000445331333037207265616420BF
:1003A0006572726F72212020506C656173652063E5
:1003B0006865636B2074686520636972637569742E
:1003C00072792E00546865204453313330372069E8
:1003D000732073746F707065642E2020736574745D
:1003E000696E672074696D652E2E2E00445331337B
:1003F0003037525443205265616420546573740051
:10040000636F756C646E74207265616420727463CE
:100410002E006572726F72006572726F7220706169
:100420007273696E67205F5F444154455F5F004AA5
:10043000616E4665624D61724170724D61794A75B7
:100440006E4A756C4175675365704F63744E6F7675
:10045000446563006572726F722070617273696EB9
:1004600067205F5F54494D455F5F00436F756C6463
:10047000206E6F7420706172736520696E666F20E4
:1004800066726F6D2074686520636F6D70696C654E
:10049000722C2054696D653D2200506C6561736556
:1004A00020636865636B20796F757220636972637E
:1004B00075697472790044533133303720436F6D5E
:1004C0006D756E69636174696F6E204572726F72CB
:1004D000203A2D7B0044533133303720636F6E66F2
:1004E0006967757265642054696D653D004E6F20C3
:1004F0004144584C333435206465746563746564D5
:10050000202E2E2E2064657669636569643A007C2E
:100510003C3E5E2B3D3F2F5B5D3B2C2A225C000066
:1005200000000800020100000304070000000000B2
:10053000000000010204081020408001020408109D
:10054000200102040810200404040404040404022A
:10055000020202020203030303030300000000235C
:10056000002600290000000000250028002B0000C4
:10057000000000240027002A006364696E6F707316
:100580007578585B000067086C0AE323FD27112487
:100590001FBECFEFD8E0DEBFCDBF12E0A0E0B1E0DC
:1005A000EAE6FDE602C005900D92A634B107D9F740
:1005B00025E0A6E4B2E001C01D92A23DB207E1F73A
:1005C00015E0CEE8D5E004C02297FE010E94432E3C
:1005D000C638D107C9F70E94E22B0C94B3360C94AD
:1005E00000008EBD00000DB407FEFDCF8EB508954E
:1005F000CF93DF9300D000D000D0CDB7DEB79E01FF
:100600002F5F3F4F3F932F932E5F3F4F3F932F938B
:100610002E5F3F4F3F932F932AE031E03F932F937C
:100620009F938F930E94D1300FB6F894DEBF0FBE18
:10063000CDBF039741F064E574E080E395E00E944C
:10064000BC2880E00AC08D8180934A028B81809310
:10065000490289818093480281E026960FB6F8947A
:10066000DEBF0FBECDBFDF91CF910895EF92FF9215
:100670000F931F93CF93DF93CDB7DEB766970FB677
:10068000F894DEBF0FBECDBF182F092F6FE274E0C4
:10069000CE010D960E94A52B9E012D5E3F4F3F93EC
:1006A0002F932E5F3F4F3F932F93245131093F9358
:1006B0002F9323E131E03F932F930F931F930E94D9
:1006C000D1300FB6F894DEBF0FBECDBF039719F03F
:1006D00068E174E02DC000E010E0F12CE980B80181
:1006E000CE010D960E94CD2BFC018081F394E8127F
:1006F00018C0EA80B8016F5F7F4FCE010D960E944F
:10070000CD2BFC018081E8120CC0EB80B8016E5F3C
:100710007F4FCE010D960E94CD2BFC018081E81603
:1007200069F00D5F1F4F04321105C1F662E174E0FC
:1007300080E395E00E94BC2810E00AC08D89809378
:100740004C02F0924D028B89825B80934E0211E045
:10075000CE010D960E94DF2A812F66960FB6F8947F
:10076000DEBF0FBECDBFDF91CF911F910F91FF90E4
:10077000EF9008958CE191E00E943603882331F0D8
:1007800088E291E00E94F80281111EC06BE674E0DD
:1007900080E395E00E947E2868E271E080E395E0C6
:1007A0000E94AF2869E371E080E395E00E94AF28E2
:1007B0006CE171E080E395E00E94AF2861E471E0B4
:1007C00080E395E00C94E02888E492E00E94E7231F
:1007D0008823A9F065ED74E080E395E00E947E280F
:1007E00068E271E080E395E00E94AF2861E371E088
:1007F00080E395E00E94AF286CE171E0E1CF66EB09
:1008000074E080E395E00E94BC286AE974E080E32C
:1008100095E00C94BC28EF92FF920F931F93CF9317
:10082000DF93CDB7DEB7AF970FB6F894DEBF0FBE3C
:10083000CDBF8C01CE0189960E943E2481110CC04F
:1008400060E074E080E395E00E94BC2868E372E019
:10085000C8010E944D2B29C089A51F928F938AA59C
:100860001F928F938BA51F928F938DA51F928F93AD
:100870008EA51F928F938FA590E08E54984F9F93D3
:100880008F9383E491E09F938F93CE0101967C0137
:10089000FF928F930E94AF30B701C8010E944D2B89
:1008A0000FB6F894DEBF0FBECDBFC801AF960FB62E
:1008B000F894DEBF0FBECDBFDF91CF911F910F9196
:1008C000FF90EF900895CF93DF9300D000D000D039
:1008D000CDB7DEB76CEE73E080E395E00E94BC28F4
:1008E000CE0101960E940B0468E372E0CE010196EE
:1008F0000E94AE2B8823B9F080912605882349F009
:1009000064EC73E080E395E00E94BC280E94BA0387
:100910000AC064E973E080E395E00E94BC2880E3AC
:1009200095E00E94B828BE016F5F7F4F80E395E09D
:100930000E94CE28CE0101960E94DF2A26960FB68D
:10094000F894DEBF0FBECDBFDF91CF910895CF9356
:10095000DF93CDB7DEB7A8970FB6F894DEBF0FBE12
:10096000CDBFDC01ED91FC910084F185E02DBE014D
:100970006F5F7F4F099565E873E080E395E00E9423
:100980007E28BE016F5F7F4F80E395E00E94E028E4
:1009900066E773E080E395E00E947E284D855E85E2
:1009A0006F8578892AE030E080E395E00E948B290A
:1009B00067E673E080E395E00E947E2849895A89C2
:1009C0006B897C892AE030E080E395E00E948B29E6
:1009D00068E573E080E395E00E947E28498D5A8D9A
:1009E0006B8D7C8D22E030E080E395E00E94CB2A85
:1009F00061E573E080E395E00E94BC2862E473E067
:100A000080E395E00E947E284D8D5E8D6F8D78A1EC
:100A100022E030E080E395E00E94CB2A6BE373E0B4
:100A200080E395E00E94BC286CE273E080E395E0EF
:100A30000E947E2849A15AA16BA17CA122E030E04E
:100A400080E395E00E94CB2A65E273E080E395E0C5
:100A50000E94BC28A8960FB6F894DEBF0FBECDBF8B
:100A6000DF91CF91089568E372E080E395E00E9402
:100A7000E02860E073E080E395E00E94BC2868E332
:100A800072E080E395E00C94E028CF93DF93EC01D3
:100A900061EF72E080E395E00E947E28CE010E9423
:100AA0003E0E80319105A8F5FC01EC5CFF4F0C94E3
:100AB000412E61E671E02FC067E671E02CC06DE663
:100AC00071E029C062E771E026C062E671E023C0F0
:100AD00067E771E020C06CE771E01DC068E871E075
:100AE0001AC060E871E017C066E871E014C06CE8F5
:100AF00071E011C062E971E00EC068E971E00BC0FD
:100B00006EE971E008C064EA71E005C06AEA71E06C
:100B100002C060EB71E080E395E00E94AF2866EBD5
:100B200071E080E395E0DF91CF910C94E028CF93C2
:100B3000DF93EC016DED72E080E395E00E947E288A
:100B4000CE010E94380E8130910589F02CF4892B5A
:100B500089F461EC71E010C08230910529F00397AF
:100B600049F46AEB71E008C06BE971E005C06EEB17
:100B700071E002C062EB71E080E395E00E94AF2873
:100B800064EC71E080E395E0DF91CF910C94E02874
:100B90004F925F926F927F928F929F92AF92BF928D
:100BA000CF92DF92EF92FF9262ED72E080E395E0E8
:100BB0000E94BC280E94220FC12CD12C76012AE071
:100BC00030E0B701A60180E395E00E949D2967EC23
:100BD00071E080E395E00E94AF2860E080914702D9
:100BE0000E94F72582E00E94F10227016624772403
:100BF000842D0E94F10280E00E94F10280E00E94B8
:100C0000F102812C912C5401882D0E94F1028FEF6A
:100C1000881A980AA80AB80A8114910484E0A806E0
:100C2000B10491F761E0809147020E94F72569ECD9
:100C300071E080E395E00E94AF2860E08091470278
:100C40000E94F72583E00E94F102842D0E94F102A8
:100C500080E00E94F10280E00E94F102812C912C40
:100C6000540180E00E94F1028815A1F04AE050E0B2
:100C7000682F80E395E00E94AA296CEC71E080E384
:100C800095E00E94AF284AE050E0682D80E395E0AF
:100C90000E94B1298FEF881A980AA80AB80A81140D
:100CA000910484E0A806B104E1F661E08091470276
:100CB0000E94F7256DEC72E080E395E00E94BC286D
:100CC00084E0E80EF11CC114D10480E1E806F104CF
:100CD00009F075CFFF90EF90DF90CF90BF90AF906D
:100CE0009F908F907F906F905F904F900C94580FD3
:100CF000CF93DF930E94220FC7E4D2E060E08881A7
:100D00000E94F72581E00E94F102809146020E9434
:100D1000F10261E088810E94F725DF91CF910C9468
:100D2000580FCF92DF92EF92FF920F93CF93DF9302
:100D3000CDB7DEB7C854D1090FB6F894DEBF0FBEE9
:100D4000CDBF22961FAE229723961FAE23972696DD
:100D50001FAE269728961FAE289764EB72E080E3BB
:100D600095E00E947E28EE24EA940FEF2FEF4AE0F0
:100D700060E0CE01CC960E948E13811115C06CE804
:100D800072E080E395E00E94BC2866E772E080E3B1
:100D900095E00E94BC286CE572E080E395E00E943B
:100DA000BC2868E172E043C06FEE71E080E395E03B
:100DB0000E94BC2862EE71E080E395E00E947E28EC
:100DC00028968FAD2897823039F0833041F08130FA
:100DD00049F46EED71E008C06AED71E005C065EDA3
:100DE00071E002C06DEC71E080E395E00E94BC28E8
:100DF00082E090E0A0E0B0E089839A83AB83BC837B
:100E0000188E41E0BE01645C7F4FCE0101960E94C6
:100E1000BD22811111C040E0BE01645C7F4FCE0154
:100E200001960E94BD22811107C063E871E080E352
:100E300095E00E94BC2876C06FE671E080E395E003
:100E40000E947E284AE050E0688D80E395E00E9491
:100E5000B12980E395E00E94B828AD812A853B85C1
:100E60004C855D8599E0220F331F441F551F9A95CD
:100E7000D1F7B0E00E94562E6B017C0169E571E06C
:100E800080E395E00E947E282AE030E0B701A601C9
:100E900080E395E00E94CE2962E471E080E395E072
:100EA0000E947E28B701A6012AE07695679557959E
:100EB00047952A95D1F72AE030E080E395E00E943B
:100EC000CE296BE271E080E395E00E947E28B701B5
:100ED000A60134E176956795579547953A95D1F7F0
:100EE0002AE030E080E395E00E94CE2961EF70E0D7
:100EF00080E395E00E94BC281AA219A282E292E047
:100F000098A38F8F1CA2BE016F5F7F4FCE014F96BB
:100F10000E940C1740E063E0CE014F960E94411EF4
:100F20000E94580FC85BDF4F0FB6F894DEBF0FBEAC
:100F3000CDBFDF91CF910F91FF90EF90DF90CF90D9
:100F400008951F93CF93DF93EC0169EB70E080E38A
:100F500095E00E94BC28CE010E94D80D182F811167
:100F600007C06CEA70E080E395E00E94BC280AC0EC
:100F70006FE070E0CE010E94920D63E070E0CE0160
:100F80000E94170E812FDF91CF911F910895EF924C
:100F9000FF920F931F93CF93DF93CDB7DEB7A49744
:100FA0000FB6F894DEBF0FBECDBF8C010E94A10723
:100FB000882309F45AC08CB58C7F8CBD8DB58160B7
:100FC0008DBDC8010E94A704C8010E944505C80143
:100FD0000E94970568E372E080E395E00E94E028B4
:100FE000E12CF12CD801ED91FC910680F781E02DE8
:100FF000BE016F5F7F4FC801099568EA70E080E32A
:1010000095E00E947E284D895E896F89788D22E067
:1010100030E080E395E00E94CB2A62EA70E080E352
:1010200095E00E947E28498D5A8D6B8D7C8D22E043
:1010300030E080E395E00E94CB2A6CE970E080E329
:1010400095E00E947E284D8D5E8D6F8D78A122E007
:1010500030E080E395E00E94CD2ABFEFEB1AFB0A57
:1010600084E6E816F10409F0BDCFA4960FB6F89413
:10107000DEBF0FBECDBFDF91CF911F910F91FF90CB
:10108000EF90089526E040E052EC61E070E080E3EC
:1010900095E00E94392761E088E00E94F72561E031
:1010A0008AE00E94F72561E089E00E94F72561E06F
:1010B00088E00E94BE2561E08AE00E94BE2561E0D2
:1010C00089E00E94BE250E9478060C94330568E0F2
:1010D00086E492E00C941A0F0F93CF93DF93CDB771
:1010E000DEB7CB56D1090FB6F894DEBF0FBECDBF29
:1010F0001E821F821A861C8682E090E0A0E0B0E08B
:101100008E879F87A88BB98B1DA21FA61EA682E281
:1011100092E09DA78CA719AA6FED70E080E395E09F
:101120000E94BC280FEF2FEF4FEF6AE0CE0101962F
:101130000E949F108823C9F123E14FEC51E0BE01CA
:101140006F5F7F4FCE01855B9F4F0E94C011CE0124
:10115000855B9F4F0E949210811106C068EC70E081
:1011600080E395E00E94BC28CE018A599F4F0E94DF
:101170000B04BE016A597F4FCE01855B9F4F0E94D1
:10118000CE28CE018A599F4F0E94DF2ACE01855B6F
:101190009F4F0E949D0FCE0101960E94D310CE0159
:1011A000855B9F4F0E943D1006C064EC70E080E3B9
:1011B00095E00E94BC280E94580FC559DF4F0FB61A
:1011C000F894DEBF0FBECDBFDF91CF910F91089590
:1011D000CF92DF92EF92FF920F93CF93DF93CDB731
:1011E000DEB76C970FB6F894DEBF0FBECDBF0E947E
:1011F00063040E9433050E94C8050E943305CC2475
:10120000CA94DC2C760109E02BE04CE06DE0CE01C5
:101210000F960E943D0D49E350E360E070E0CE017F
:1012200001960E942F0D62E970E080E395E00E9434
:10123000BC28CE010F960E94C70768E870E080E3E3
:1012400095E00E94BC28CE0101960E94C7070E942B
:1012500033050E9491060E9433050E946C080E948B
:10126000330564EF71E080E090E00E9420256C96E9
:101270000FB6F894DEBF0FBECDBFDF91CF910F91B7
:10128000FF90EF90DF90CF90089580917F0290E0E3
:1012900020918002821B9109089520918002809103
:1012A0007F02281750F4E22FF0E0EF57FD4F8081C6
:1012B00090E02F5F2093800208958FEF9FEF0895B5
:1012C000E091800280917F02E81730F4F0E0EF5760
:1012D000FD4F808190E008958FEF9FEF089508956E
:1012E000CF92DF92EF92FF920F931F93CF93DF93F2
:1012F0007C01CB018A0120915B02222389F0EB0162
:101300006B01C40ED51ECC15DD0569F06991D701BE
:10131000ED91FC910190F081E02DC7010995F3CF8B
:10132000642F0E942D0BC801DF91CF911F910F9167
:10133000FF90EF90DF90CF900895CF93DF931F92AF
:10134000CDB7DEB7698320915B022223D1F02091D3
:101350005C02203240F021E030E0FC013383228344
:1013600080E090E015C080915D02E82FF0E0E25A45
:10137000FD4F998190838F5F80935D0280935C0223
:1013800005C061E0CE0101960E942D0B81E090E046
:101390000F90DF91CF910895FC011382128248EEE5
:1013A00053E060E070E044835583668377838CED7F
:1013B00091E09183808308951092800210927F02C1
:1013C00010925D0210925C020C94700A81E080938E
:1013D0005B0260937E0210925D0210925C0208959F
:1013E0000C94E6090F93062F21E040915C026EE514
:1013F00072E080917E020E94D60A10925D021092E5
:101400005C0210925B020F9108958F929F92AF92AF
:10141000BF92CF92DF92EF92FF920F931F93CF93E1
:10142000DF93EC01F62ED42E48015901EE2019F17C
:101430000E94E6091E2D143008F013E01150B8F098
:10144000E881F98128E0129FB0011124A5019401DF
:1014500004C056954795379527956A95D2F7CA01E6
:10146000B9010190F081E02DCE010995E7CF60E050
:10147000CE010E94F2094D2D413208F040E22C2DA0
:1014800061E872E08F2D0E948E0A10928002809394
:101490007F02DF91CF911F910F91FF90EF90DF902E
:1014A000CF90BF90AF909F908F900895CF92EF9282
:1014B0000F931F93C22EE12C00E010E098010E94D0
:1014C000050A1F910F91EF90CF90089521E00C94A1
:1014D000560A61E00C94F2098FE492E00C94CC0976
:1014E00010920E0381E080930C0310920B0361E0D5
:1014F00082E10E94F72561E083E10E94F725E9EB94
:10150000F0E080818E7F808380818D7F808388E47E
:101510008093B80085E48093BC000895413208F0C0
:1015200043C090910E039111FCCF91E090930E0374
:1015300020930C032FEF2093A1021092E602240FB8
:101540002093E50290930D0390910D03880F892B52
:1015500080930D0380910B03813061F410920B0393
:1015600080910D038093BB008091BC0083FDF8CF78
:1015700085EC01C085EE8093BC0080910E03813024
:10158000E1F38091E602841710F44091E60227EE21
:1015900032E0FB01D9018A2F821B841718F48D9148
:1015A0008193F9CF842F089580E008950F934132FD
:1015B00008F04AC090910E039111FCCF92E09093F5
:1015C0000E0300930C039FEF9093A1021092E6028A
:1015D0004093E502FB0167EE72E0DB019A2F961B58
:1015E000941718F491919D93F9CF10920D03909157
:1015F0000D03880F892B80930D0380910B0381309D
:1016000061F410920B0380910D038093BB008091D5
:10161000BC0083FDF8CF85EC01C085EE8093BC0053
:10162000222321F080910E038230E1F38091A10208
:101630008F3F61F08091A102803251F08091A10230
:10164000803341F483E007C081E005C080E003C03F
:1016500082E001C084E00F910895613298F42091F6
:101660000E03243089F46093C302FC0185EC92E000
:10167000DC012A2F281B261718F421912D93F9CF6E
:1016800080E0089581E0089582E0089585ED8093DB
:10169000BC008091BC0084FDFCCF10920E03089525
:1016A00085EC8093BC0010920E0308951F920F9258
:1016B0000FB60F9211242F933F934F935F936F9325
:1016C0007F938F939F93AF93BF93EF93FF938091FB
:1016D000B900887F803609F49EC078F5883209F415
:1016E0005DC090F4803109F456C038F4882309F4C1
:1016F000F5C0883009F44FC0F5C0883109F44EC0F8
:10170000803209F45FC0EEC0803409F46AC058F436
:10171000803309F457C0883309F0E4C08093A102F4
:101720000E94500BDFC0803509F44FC0883509F4A2
:101730005DC0883409F0D6C0D3C0883909F4C4C06C
:10174000A8F4883709F467C038F4883609F463C010
:10175000803709F460C0C6C0883809F4B5C0803944
:1017600009F45FC0803809F0BDC05BC0803B09F45C
:1017700083C038F4803A09F466C0883A09F47CC022
:10178000B1C0803C09F4A4C0883C09F4A1C0883BE6
:1017900009F487C0A7C080910D0310C09091E602A4
:1017A0008091E502981770F5E091E60281E08E0FD6
:1017B0008093E602F0E0E951FD4F80818093BB0009
:1017C00085EC83C08093A1028BC0E091E60281E0AA
:1017D0008E0F8093E6028091BB00F0E0E951FD4F4F
:1017E00080839091E6028091E5026BC0E091E60271
:1017F00081E08E0F8093E6028091BB00F0E0E9511A
:10180000FD4F808380910C0381116AC081E0809339
:101810000B0384EA5EC083E080930E031092A20261
:10182000CFCF8091A202803208F04EC0E091A20298
:1018300081E08E0F8093A2028091BB00F0E0ED5515
:10184000FD4F8083BDCF0E94500B8091A202803259
:1018500030F4E091A202F0E0ED55FD4F108260916E
:10186000A20270E0E0910703F091080383EA92E09E
:1018700009951092A20236C084E080930E03109264
:10188000C4021092C302E0910903F0910A03099582
:101890008091C302811105C081E08093C302109240
:1018A000C502E091C40281E08E0F8093C402F0E093
:1018B000EB53FD4F80818093BB009091C4028091D7
:1018C000C302981708F47CCF85E88093BC000AC057
:1018D00085EC8093BC0010920E0304C01092A1020C
:1018E0000E94460BFF91EF91BF91AF919F918F9115
:1018F0007F916F915F914F913F912F910F900FBE0C
:101900000F901F90189524EF31E0FC013183208364
:101910000895089524EF31E0FC0131832083089578
:1019200024EF31E0FC01318320830C94F12B24EF70
:1019300031E0FC01318320830C94F12BAF92BF92F4
:10194000CF92DF92EF92FF920F931F93CF93DF938B
:101950001F92CDB7DEB7F82EE62ED42EC22E87E02A
:10196000A82EB12C30E001E010E0330F60E08F2DA5
:1019700039830E94F725F8010A2C01C0EE0F0A9462
:10198000EAF76C2D6E238D2D0E94F72561E08F2DD7
:101990000E94F7258E2D0E942D263981892B09F072
:1019A000316081E0A81AB10800F7832F0F90DF9112
:1019B000CF911F910F91FF90EF90DF90CF90BF904C
:1019C000AF9008950F931F93CF93DF938C01EB019A
:1019D00088E2FB0111928A95E9F74BE050E068EE4E
:1019E00071E0CE010E94A0301B8641E050E060E033
:1019F00070E04C875D876E877F87F8014381548153
:101A000065817681488B598B6A8B7B8B46E050E0F1
:101A100060E070E04C8B5D8B6E8B7F8B1CA21DA2F7
:101A20001EA21FA24AE058EE6CE173EC488F598F5A
:101A30006A8F7B8F4AE058EE6CE173E44C8F5D8FC8
:101A40006E8F7F8F43EA5FEA60E27DE348A359A38C
:101A50006AA37BA3DF91CF911F910F910895FC01A1
:101A600082E092E09183808343835483658376830D
:101A70001086178281E085870895CF92DF92EF92DA
:101A8000FF920F93FC0182E092E091838083C382F6
:101A9000D482E582F68210861782048761872287C6
:101AA000438715860F91FF90EF90DF90CF900895B8
:101AB0000F931F93CF93DF93EC01062F142F8D8587
:101AC0008823C1F063E570E08FE492E00E94F009A2
:101AD000602F8FE492E00E949D09612F8FE492E0D5
:101AE0000E949D098FE492E0DF91CF911F910F91A9
:101AF0000C94690A60E08C850E94F725202F4A85A6
:101B00006B8589850E949E0C212F4A856B8589856E
:101B10000E949E0C61E08C85DF91CF911F910F9107
:101B20000C94F725462F6CE20C94580D1F93CF931D
:101B3000DF93EC01162F8D858823E1F063E570E0DB
:101B40008FE492E00E94F009612F8FE492E00E94FE
:101B50009D098FE492E00E94690A41E050E063E54C
:101B600070E08FE492E00E94660A8FE492E00E94A7
:101B70004D0917C060E08C850E94F725212F206851
:101B80004A856B8589850E949E0C2FEF4A856B855F
:101B900089850E949E0C182F61E08C850E94F72594
:101BA000812FDF91CF911F91089560E00C94960DE5
:101BB0001F93CF93DF93EC018D85882329F08FE469
:101BC00092E00E94DC0914C061E08C850E94BE2571
:101BD00061E089850E94BE2561E089850E94F72524
:101BE00061E08A850E94BE2560E08B850E94BE254B
:101BF000CE010E94D50D182F853E79F06DEE74E070
:101C000080E395E00E947E2840E150E0612F80E370
:101C100095E00E94B12980E006C048E06DE2CE0167
:101C20000E94580D81E0DF91CF911F910895EF92AE
:101C3000FF921F93CF93DF931F92CDB7DEB77C0146
:101C4000162F61E379830E94960D482F407F412B28
:101C5000486061E3C7010E94580DF701178379813D
:101C600070870F90DF91CF911F91FF90EF900895B3
:101C700061E30E94960D837090E008956CE20E94EB
:101C8000960D8F7090E008950F931F93CF93DF937D
:101C9000EC01162F8D85882321F163E570E08FE438
:101CA00092E00E94F009612F8FE492E00E949D096A
:101CB0008FE492E00E94690A42E050E063E570E040
:101CC0008FE492E00E94660A8FE492E00E944D0940
:101CD000C82F8FE492E00E944D09982F88278C2B03
:101CE0001FC060E08C850E94F725212F206C4A855B
:101CF0006B8589850E949E0C2FEF4A856B858985AF
:101D00000E949E0C082F2FEF4A856B8589850E94C3
:101D10009E0C10E0182B61E08C850E94F725C8010D
:101D2000DF91CF911F910F91089562E30C94440EBF
:101D300064E30C94440E66E30C94440E0F931F93DB
:101D4000CF93DF938C01EB0184E2FB0111928A9522
:101D5000E9F784E290E0A0E0B0E088839983AA8369
:101D6000BB83F80183819481A581B6818C839D8397
:101D7000AE83BF8381E090E0A0E0B0E088879987E0
:101D8000AA87BB87188A198A1A8A1B8AC8010E94E7
:101D9000950EBC01882777FD8095982F0E94F82C1E
:101DA0002FE632E143E85BE30E94AC2D2AE038EEF7
:101DB0004CE151E40E94AC2D6C8B7D8B8E8B9F8B04
:101DC000C8010E94980EBC01882777FD8095982F46
:101DD0000E94F82C2FE632E143E85BE30E94AC2D31
:101DE0002AE038EE4CE151E40E94AC2D688F798FE7
:101DF0008A8F9B8FC8010E949B0EBC01882777FDAC
:101E00008095982F0E94F82C2FE632E143E85BE39F
:101E10000E94AC2D2AE038EE4CE151E40E94AC2D3A
:101E20006C8F7D8F8E8F9F8F81E0DF91CF911F917F
:101E30000F910895FC01862F618390E4908361E007
:101E40000C94BE25CF93CFB7F894809110038111E5
:101E500027C0E1E5F5E08491EDE3F5E09491E82F0A
:101E6000F0E0EE0FFF1FE159FA4FA591B4918C916C
:101E7000892321F461E08AE00E94F72561E08AE08D
:101E80000E94BE258CB580618CBD8CB580648CBDF4
:101E900061E08DE00E94BE2561E08BE00E94BE25DE
:101EA000809110038F5F80931003CFBFCF9108956F
:101EB0009FB7F89480911003882319F08150809384
:101EC000100380911003811105C08CB58F7B8CBDF0
:101ED00010920F039FBF0895CF93DF931F92CDB74A
:101EE000DEB76983DC01ED91FC910280F381E02D86
:101EF00041E050E0BE016F5F7F4F09950F90DF9189
:101F0000CF910895CF93DF93EC01898D9A8D00973F
:101F100059F0FC01138212820E94571CE98DFA8D40
:101F200022813381232B31F081E090E09B838A83EF
:101F300080E090E0DF91CF910895FC01818D928D3A
:101F4000009711F00C94B1190895CF93DF931F926D
:101F5000CDB7DEB741E050E0BE016F5F7F4F0E941A
:101F6000C217019719F4898190E002C08FEF9FEFAB
:101F70000F90DF91CF910895FC01818D928D009794
:101F800011F00C94A50F8FEF9FEF08950F931F93FF
:101F9000CF93DF938C01FC01818D928D0097B9F076
:101FA0000E94A50FEC018F3FFFEF9F0799F0F8010A
:101FB000818D928DFC0142855385648575854150E4
:101FC0005109610971090E941519CE0105C080E00F
:101FD00090E002C08FEF9FEFDF91CF911F910F91A3
:101FE0000895CF92DF92EF92FF920F931F93CF93BA
:101FF000DF93EC017B016A011B821A8208EE13E079
:1020000020E030E00C831D832E833F8380E192E04B
:10201000998388838DE190E00E94612E9A8F898F49
:10202000009779F02DE1F701DC0101900D922A95DE
:10203000E1F74CE050E0B601CE010C960E94A030D2
:10204000188EDF91CF911F910F91FF90EF90DF904D
:10205000CF900895FC011382128248EE53E060E0B5
:1020600070E0448355836683778380E192E09183B7
:102070008083128E118E1486089520E132E0FC01D7
:10208000318320830895DC015996ED91FC915A9794
:10209000309729F0628573858485958508956FEF63
:1020A0007FEFCB010895DC015996ED91FC915A9791
:1020B000309729F06389748985899689089560E04D
:1020C00070E0CB010895CF92DF92EF92FF92CF9311
:1020D000DF93EC01898D9A8D892BD9F0CE010E9476
:1020E00053106B017C01CE010E944310A7019601A1
:1020F000261B370B480B590BDA01C901811530E853
:102100009307A105B10538F08FEF9FE7A0E0B0E09D
:1021100002C080E090E0DF91CF91FF90EF90DF90E0
:10212000CF900895DC015996ED91FC915A97309724
:1021300021F081E09581911101C080E00895EF9236
:102140000F931F93CF93DF93EC01E02E022F242FE8
:10215000462F61E00E948E13811102C080E01DC0F5
:102160008E01035F1F4F41E0BE01C8010E94BD22E6
:10217000882359F0B801CE018B960E940C1791E08C
:10218000811101C090E0892F08C040E0BE01C80164
:102190000E94BD22882311F3EDCFDF91CF911F91D3
:1021A0000F91EF9008958B960C94F819FC01DB01C8
:1021B00012968D919C9113979383828382E292E091
:1021C0009183808314968C911497848315968C91B7
:1021D0001597858316964D915D916D917C91199718
:1021E00046835783608771871A964D915D916D91F3
:1021F0007C911D9742875387648775871E964D9102
:102200005D916D917C91519746875787608B718B5B
:1022100052968C915297828B53964D915D916D9110
:102220007C915697438B548B658B768B57964D914B
:102230005D916D917C915A97478B508F618F728F12
:102240005B968D919C915C97948F838F08954F92AC
:102250005F926F927F928F929F92AF92BF92CF9236
:10226000DF92EF92FF920F931F93CF93DF93CDB73F
:10227000DEB7C754D1090FB6F894DEBF0FBECDBF8D
:102280006C014A013901655D7F4F5E018EE1A80E48
:10229000B11CC5010E94D6101C821B8282E292E012
:1022A0009A8389831E828401FE0131967F015A2C14
:1022B0004B2C6FE270E0C8010E9485300097E9F175
:1022C000F80120812F3219F40F5F1F4FF2CF801BCE
:1022D0008D3008F08CE0A82EB12CA501B801CE01FC
:1022E000CB960E94A030EBE3F0E0EC0FFD1FEA0D6F
:1022F000FB1D1082C7010E94F81921E0AE01455C68
:102300005F4F652D742DC7010E942C1B811109C0E0
:10231000F6011382128282E292E091838083158219
:1023200016C00A0D1B1D852D942D0E94F819C2019F
:102330005E2C4F2CE92EF82EBCCF08191909F30199
:1023400011830083652D742DC6010E94D610C6012D
:10235000C95BDF4F0FB6F894DEBF0FBECDBFDF9174
:10236000CF911F910F91FF90EF90DF90CF90BF9092
:10237000AF909F908F907F906F905F904F90089557
:102380009F92AF92BF92CF92DF92EF92FF920F9304
:102390001F93CF93DF93CDB7DEB7C955D1090FB6E1
:1023A000F894DEBF0FBECDBF7C016B015A01922EA7
:1023B0009E01285A3F4FCE01CB960E9427116A9664
:1023C0000EAD1FAD6A970A0D1B1DF80180818111AA
:1023D0000AC0BE01655C7F4FCE0101960E94D610F7
:1023E0004CE152E041C019A218A282E292E09F8F14
:1023F0008E8F1BA221968FAD2197811104C0C7013A
:102400000E942A1037C08250823060F4B601655DA8
:102410007F4F292DA801CE014E960E942C1B8111C1
:1024200010C0EDCF292DA801BE01655C7F4FCE0104
:102430004E960E942C1B882311F3CE01CB960E944E
:10244000F819892D867041F049A95AA96BA97CA970
:10245000CE014E960E941519BE01625E7F4FCE01DD
:1024600001960E94D610A801BE016F5F7F4FC70181
:102470000E94F10FC701C75ADF4F0FB6F894DEBFB5
:102480000FBECDBFDF91CF911F910F91FF90EF90C5
:10249000DF90CF90BF90AF909F90089590911A03D6
:1024A0009F3F39F48EBD00000DB407FEFDCF8EB501
:1024B0000895F894E0911603F091170340911203E8
:1024C000342F3095A0911803B09119035091130344
:1024D000652F609598E02081232320832C9187FF2E
:1024E00002C0252B01C026232C932081242B20837E
:1024F000880F915081F700000000000000008081EB
:10250000832380837894089580911A038F3F39F450
:102510008EBD00000DB407FEFDCF8EB50895F89472
:10252000E0911803F0911903808190911303892B96
:102530008083E0911603F091170330911203A0916C
:102540001403B091150350911103432F409598E067
:1025500080E02081232B2083880F2C91252309F0F4
:10256000816020812423208300000000915089F79E
:10257000789408952CB5982F93702C7F922B9CBD46
:102580009DB582FB882780F99E7F982B9DBD08957D
:1025900061E0FC0184810C94F72560E0FC018481FA
:1025A0000C94F725CF93DF93EC018E81882389F07B
:1025B0008F8198859C012F5F3F4F38872F83823012
:1025C000924018F40E948412F3CFCE010E94C812E8
:1025D0001E82DF91CF910895673028F026E1FC013B
:1025E000258380E00895633079F028F46130A1F00C
:1025F000623041F005C0653059F040F0663051F06E
:1026000084E00BC085E009C081E007C086E005C01A
:1026100082E003C083E001C080E00E94BA1281E042
:1026200008950F931F93CF93DF93EB010E94F12442
:102630008B010E9484128F3F49F00E94F124601B9D
:10264000710B6C177D07A8F380E001C081E0DF917A
:10265000CF911F910F910895CF92DF92FF920F9328
:102660001F93CF93DF9300D000D0CDB7DEB76C01BE
:10267000F62E29833A834B835C830E94D212C601D3
:102680000E94CD126CE271E0C6010E9411138F2DE1
:1026900080640E944E1208E110E05C814B813A8117
:1026A0002981DA01C901002E04C0B695A795979536
:1026B00087950A94D2F729833A834B835C830E94DF
:1026C0004E120850110929813A814B815C81083FE3
:1026D0008FEF180731F7FF2029F0E8E0FE1621F010
:1026E0008FEF03C085E901C087E80E944E1210E019
:1026F0000E948412F601828787FF04C01F3F11F0F9
:102700001F5FF6CF0F900F900F900F90DF91CF913A
:102710001F910F91FF90DF90CF900895AF92BF92DD
:10272000CF92DF92EF92FF920F931F93CF93DF939D
:10273000EC01B62E1B8619861E821D821C864C83D8
:1027400020931C0300931B03E0921A030E94F124C0
:102750008B0161E08C810E94BE25CE010E94C812CF
:102760008FEFE81609F45EC060E080911B030E94C1
:10277000BE2561E080911C030E94BE2561E080912E
:102780001A030E94BE2580911A03992787FD909510
:10279000FC01E95BFA4FE491F0E0EE0FFF1FEB590B
:1027A000FA4F259134913093170320931603FC01BF
:1027B000ED5CFA4F84918093120380911C0399275A
:1027C00087FD9095FC01E95BFA4FE491F0E0EE0F94
:1027D000FF1FEB59FA4F2591349130931903209341
:1027E0001803FC01ED5CFA4F8491809313038091F0
:1027F0001B03992787FD9095FC01E95BFA4FE49153
:10280000F0E0EE0FFF1FE55AFA4F25913491309317
:10281000150320931403FC01ED5CFA4F849180931F
:10282000110305C00E94220F83E00E94BA122AE021
:10283000A22E8FEF0E944E12AA94D9F7CE010E94C9
:10284000CD1220E030E0A90160E0CE010E942C13FF
:10285000F82E8A8781E0F81649F00E94F124601B67
:10286000710B613D774068F381E04BC02AEA31E0AB
:1028700040E050E068E0CE010E942C1382FF02C0CD
:10288000FB860DC094E0F92E0E9484128A87FA9488
:10289000D9F78A3A11F082E034C082E08B878B85C9
:1028A000823031F4C12CD12CE12C80E4F82E03C00D
:1028B000C12CD12C760120E030E0A90167E3CE01E4
:1028C0000E942C13A701960169E2CE010E942C13ED
:1028D0008A87882349F00E94F124601B710B613DB7
:1028E000774048F388E00DC08B858230E1F420E02A
:1028F00030E0A9016AE3CE010E942C13882331F055
:1029000086E08D83CE010E94C81224C00E948412EA
:10291000807C803C11F483E08B870E9484120E94AB
:1029200084120E948412CE010E94C81280911A0360
:102930008F3F71F46B2DCE01DF91CF911F910F91DD
:10294000FF90EF90DF90CF90BF90AF900C94EC127F
:10295000AA24A3948A2DDF91CF911F910F91FF900C
:10296000EF90DF90CF90BF90AF9008950F931F939B
:10297000CF93DF93EC010E94F1248B010E9484121B
:102980008A878F3F49F40E94F124601B710B6D32DE
:102990007140A0F38FE003C08E3F39F08DE08D834E
:1029A000CE010E94C81280E001C081E0DF91CF918A
:1029B0001F910F910895CF92DF92EF92FF920F93A4
:1029C0001F93CF93DF93EC0169010115110509F401
:1029D00062C0C801820F931F8130924008F05DC031
:1029E0008E81882371F088819981AA81BB814817E3
:1029F00059076A077B0729F48F819885C816D9067D
:102A000010F5488359836A837B838B85833039F043
:102A1000E9E0440F551F661F771FEA95D1F79A0129
:102A2000AB0161E1CE010E942C13882319F083E0F1
:102A30008D8333C0CE010E94B614882371F11886AD
:102A40001F8281E08E838F8198858C159D0540F4CF
:102A50000E9484128F819885019698878F83F3CF87
:102A60006701E00EF11ECE14DF0431F00E948412E3
:102A7000F60181936F01F7CF8F819885800F911FA9
:102A800098878F832985222319F08115924018F0A9
:102A9000CE010E94D21281E004C0CE010E94C81271
:102AA00080E0DF91CF911F910F91FF90EF90DF9029
:102AB000CF900895EF92FF920F931F93790100E05A
:102AC00012E020E030E00E94DB141F910F91FF9094
:102AD000EF900895AF92BF92CF92DF92EF92FF9264
:102AE0000F931F93CF93DF9300D0CDB7DEB78C0148
:102AF000862FF8019485992351F1DA01E12CF12C0C
:102B0000A12CB12CED91F0E0EB259F0164E035950F
:102B100027956A95E1F72E273F27BA2CAA24A226EB
:102B2000B326F901FE2FEE27F295F07FAE26BF26E1
:102B300065E0220F331F6A95E1F7A226B326FFEF67
:102B4000EF1AFF0AE11492E0F906E1F603C0AA24A5
:102B5000AA94BA2C49835A830E944E124981E42ECA
:102B60005A81F52EC12CD12CF70181917F010E9451
:102B70004E12FFEFCF1ADF0AC11482E0D806A1F788
:102B80008B2D0E944E128A2D0E944E120E9484129A
:102B9000F80182878F71853039F081E18583C80122
:102BA0000E94C81280E001C081E00F900F90DF9179
:102BB000CF911F910F91FF90EF90DF90CF90BF903A
:102BC000AF9008950F931F93CF93DF93EC0189018A
:102BD000411551056105710511F482E132C08B8503
:102BE000833039F0E9E0440F551F661F771FEA95DF
:102BF000D1F79A01AB0168E1CE010E942C13882322
:102C000011F084E01EC0A8016EEFCE010E946A158B
:102C10008823C1F068E572E0CE010E941113811192
:102C200002C085E10EC020E030E0A9016DE0CE01D8
:102C30000E942C13811104C00E948412882339F051
:102C400084E18D83CE010E94C81280E004C0CE01D1
:102C50000E94C81281E0DF91CF911F910F910895DA
:102C6000CF93DF93EC019C012A5F3F4F41E050E09E
:102C700060E070E08B8D9C8D0E9452218823A1F032
:102C80004F89588D698D7A8D452B462B472B71F4D2
:102C90004E815F81688579854F8B588F698F7A8FD8
:102CA0008C8180688C8302C080E001C081E0DF916C
:102CB000CF910895CF92DF92EF92FF921F93CF931F
:102CC000DF93EC010E943016811102C080E04BC0FE
:102CD000EB8DFC8DCE80DF80E884F98482E0C81A19
:102CE000D108E108F108058404C0CC0CDD1CEE1C01
:102CF000FF1C0A94D2F74685578560897189C40EF6
:102D0000D51EE61EF71E148181E0C81AD108E1081D
:102D1000F108112361F0C701B601610F711D811D1A
:102D2000911D0E949C1F882389F21150F2CFEB8DD8
:102D3000FC8DC12C82E0D82EE12CF12C058404C03E
:102D4000CC0CDD1CEE1CFF1C0A94D2F74B895C896D
:102D50006D897E894C0D5D1D6E1D7F1D4B8B5C8BBF
:102D60006D8B7E8B81E0DF91CF911F91FF90EF9073
:102D7000DF90CF900895CF93DF93EC01462F6E85BF
:102D80007F85888999890E94611F882341F08A89FB
:102D900020E2829FC00111248A5D9C4F02C080E026
:102DA00090E0DF91CF910895282FFB018BE030E276
:102DB00031938150E9F7A22FB92F20E037E09D91A0
:102DC000992319F19E3219F0EFE0F5E008C03A308E
:102DD00011F128E03AE0F3CF31964917E1F0449140
:102DE0004111FACF3217B8F04FED490F4E3598F434
:102DF00041E0420FFB01E20FF11D2FE9290F2A31BB
:102E000008F490529083242FDACF81E0FB01908167
:102E1000903209F480E008950F931F93CF93DF93CE
:102E2000EC018B018D81882311F080E040C0FB0113
:102E300087898031B1F482E08D831F8A188E198EC4
:102E40001A8E408D518D60E070E095E0440F551F63
:102E5000661F771F9A95D1F74B8B5C8B6D8B7E8BA2
:102E600015C0803211F783E08D83FB01428D538DB5
:102E7000648D758D4F8B588F698F7A8F9E012D5E73
:102E80003F4FC8010E944620882379F21C8F0B8F88
:102E900081E08C831E821F82188619861A861B8603
:102EA0001C861D861E861F86188A198A1A8ADF913B
:102EB000CF911F910F910895CF93DF9300D01F9270
:102EC000CDB7DEB76AE00E94132E805D8983905DE6
:102ED0009A831B82BE016F5F7F4F80E395E00E9463
:102EE000AF280F900F900F90DF91CF910895CF935F
:102EF000DF93EC01BC01672F772766956454784F08
:102F00004AE050E080E395E00E94C8296DE280E34A
:102F100095E00E94B128CE0135E0969587953A95C7
:102F2000E1F78F700E945C176DE280E395E00E94EC
:102F3000B1288C2F8F71DF91CF910C945C17CF93B8
:102F4000DF93EC018D2F8695869586950E945C1700
:102F50006AE380E395E00E94B128CE0145E09695B2
:102F600087954A95E1F78F730E945C176AE380E3C7
:102F700095E00E94B1288C2F8F71880FDF91CF913F
:102F80000C945C172F923F924F925F926F927F92B8
:102F90008F929F92AF92BF92CF92DF92EF92FF9269
:102FA0000F931F93CF93DF93EC016B015A018D8137
:102FB000811103C08FEF9FEFDAC08C8180FFFACFC1
:102FC0004B895C896D897E898A859B85AC85BD85A9
:102FD0002501612C712C8A019B01081B190B2A0BFE
:102FE0003B0B041515052605370518F45A01A81AD8
:102FF000B90A25011E0126E0220E311C411451049C
:1030000009F47BC04A855B856C857D854A0181E03A
:103010009822ED818A019B01F9E036952795179555
:103020000795FA95D1F78B8D9C8DE23051F4FC0118
:10303000628D738D848D958D600F711F821F931F1C
:103040003EC0FC0174807A94702281149104C9F40A
:10305000711017C0452B462B472B49F48F89988D4B
:10306000A98DBA8D8E839F83A887B9870AC04E81A8
:103070005F816885798591010E94C21F882309F4C8
:1030800099CFEB8DFC8D6E817F818885998562500B
:10309000710981099109058404C0660F771F881F93
:1030A000991F0A94D2F70685178520893189600F08
:1030B000711F821F931F670D711D811D911D20E0DF
:1030C00032E02819390932012415350508F439018F
:1030D0002C8126FD04C06114F2E07F06A1F5009169
:1030E0000601109107012091080130910901601734
:1030F00071078207930719F426C0C50138C076010D
:1031000083019401AB01BC018091240390912503BC
:103110000E94DB14882309F44DCFC60CD71C04C0D1
:10312000E81BF90BCE0EDF1E8A859B85AC85BD851D
:10313000860D971DA11DB11D8A879B87AC87BD8712
:10314000461857085BCF40E00E94611F882309F4AE
:1031500031CFC4018A5D9C4FD6019C01260D371DDD
:10316000FC01E217F307E1F241914D93FACFDF91B1
:10317000CF911F910F91FF90EF90DF90CF90BF9074
:10318000AF909F908F907F906F905F904F903F9007
:103190002F900895FF920F931F93CF93DF931F9269
:1031A000CDB7DEB78C01FC018581823018F480E058
:1031B00090E034C0F8014285538564857585A5E0AB
:1031C0007695679557954795AA95D1F7F42FFF7097
:1031D000FF2E41E050E0BE016F5F7F4FC8010E94AB
:1031E000C217019719F4298130E002C02FEF3FEF99
:1031F0002F3F3F4FE1F2F801428553856485758585
:10320000415E5F4F6F4F7F4F42875387648775875B
:10321000F0E2FF9EC00111248A5D9C4F0F90DF9168
:10322000CF911F910F91FF9008954F925F926F92EF
:103230007F92AF92BF92CF92DF92EF92FF920F9365
:103240001F93CF93DF93EC016A017B012D81222331
:1032500009F457C08B899C89AD89BE89841795076D
:10326000A607B70708F44DC04EC08A859B85AC857C
:10327000BD85EB8DFC8DE585F0E03996AC01BD0197
:1032800041505109610971090E2E04C07695679568
:10329000579547950A94D2F7970186010150110975
:1032A0002109310904C03695279517950795EA95A8
:1032B000D2F70417150726073707B0F58F89988DC1
:1032C000A98DBA8D8E839F83A887B987280139017C
:1032D0005E0186E0A80EB11C411451046104710422
:1032E00061F14E815F816885798595018B8D9C8D1B
:1032F0000E94C21F91E0491A5108610871088111AA
:10330000EBCF80E01FC02230C1F0C114D104E10432
:10331000F10409F0AACF1E821F82188619861A8628
:103320001B861C861D860DC0892B8A2B8B2B31F2A8
:10333000041B150B260B370BC9CFCA86DB86EC8620
:10334000FD8681E0DF91CF911F910F91FF90EF906B
:10335000DF90CF90BF90AF907F906F905F904F9035
:1033600008950F931F93CF93DF93EC018D818823F2
:10337000C9F18C8187FF30C061E0CE010E94BB168D
:103380008C01009779F18D81823048F44B895C89FA
:103390006D897E89F801448F558F668F778F4F89AD
:1033A000588D698D7A8DF801538F428F758B648BA0
:1033B000E0911D03F0911E03309759F0B8016A5E49
:1033C0007F4FC80148960995F801808D918D938BA8
:1033D000828B8C818F778C83DF91CF911F910F919E
:1033E0000C94261F80E0DF91CF911F910F910895DB
:1033F000CF93DF93EC010E94B119882319F01D824D
:1034000081E001C080E0DF91CF9108954F925F92FB
:103410006F927F92AF92BF92CF92DF92EF92FF9224
:103420000F931F93CF93DF9300D000D0CDB7DEB7BB
:103430005C016A017B01FC0185818130F1F48481AA
:1034400081FF1BC0F50183899489A589B6898417FA
:103450009507A607B70788F0892B8A2B8B2B09F4D1
:1034600079C0F5014284538464847584B701A60150
:10347000C5010E941519811102C080E06CC0F501E0
:10348000838D948DC114D104E104F10471F4478952
:10349000508D618D728D0E946722882371F3F50132
:1034A000178A108E118E128E3AC0F501468157810F
:1034B000608571859E012F5F3F4F0E94C21F882348
:1034C000E1F249815A816B817C81F501838D948D74
:1034D000FC012789203129F408EF1FEF20E030E0BC
:1034E00004C008EF1FEF2FEF3FE0401751076207BE
:1034F0007307A8F40E946722882309F4BECFF50160
:1035000046815781608571850FEF1FEF2FEF3FE0F8
:10351000838D948D0E94B120882309F4AECFF501EC
:10352000C38AD48AE58AF68A848180688483C50147
:103530000E94B119882309F4A0CFB701A6014C1449
:103540005D046E047F0410F4B301A201C5010E9462
:10355000151901C081E00F900F900F900F90DF912F
:10356000CF911F910F91FF90EF90DF90CF90BF9080
:10357000AF907F906F905F904F900895FF920F9360
:103580001F93CF93DF93EC01F42E80E2689FF0014C
:103590001124EA5DFC4F8385817129F0842F8274A8
:1035A00011F080E053C06A8B809106019091070171
:1035B000A0910801B09109018E879F87A88BB98BD4
:1035C0004489558960E070E0BA0155274427028D8F
:1035D000138D20E030E0402B512B622B732B4F8B4F
:1035E000588F698F7A8F8385887151F4048D158D7A
:1035F000268D378D0B8B1C8B2D8B3E8B81E00CC069
:10360000803179F69E012D5E3F4F8B8D9C8D0E94FF
:103610004620882331F284E08D838F2D8F708C8338
:103620001E821F82188619861A861B861C861D8696
:10363000F6FE0BC040E050E0BA01CE01DF91CF9121
:103640001F910F91FF900C94061A81E0DF91CF91AA
:103650001F910F91FF900895AF92BF92CF92DF928A
:10366000EF92FF920F931F93CF93DF93CDB7DEB707
:103670002B970FB6F894DEBF0FBECDBF7C016B0158
:10368000CA01B22EF70125812111B9C0BE016F5FB9
:103690007F4F0E94D416882309F4B1C0F601838DB0
:1036A000948DF701948F838FF6011682178210860E
:1036B00011861286138614861586A12CF6010285C2
:1036C00013852485358583899489A589B68908174A
:1036D00019072A073B07E8F545E036952795179522
:1036E00007954A95D1F70F70C6010E94CA18009736
:1036F00009F485C0FC012081222311F0253EB9F494
:10370000A1100EC0F701028B4091060150910701F4
:10371000609108017091090146875787608B718B12
:10372000FC018081AA24A3948111C8CF12C04BE070
:1037300050E0BC01CE0101960E946F30892B09F048
:10374000BDCF8B2D8073803309F459C04B2D602F72
:1037500052C08B2D8271823109F051C0AA2041F0F4
:1037600061E0C7010E94BB168C01009779F447C045
:10377000F6018581823009F442C0C6010E945A16C2
:103780008823E9F1F701128A06E213E080E2F801EA
:1037900011928A95E9F78BE0FE013196D8010190EC
:1037A0000D928A95E1F7E0911D03F0911E03309789
:1037B00039F0B801625F7F4FC8014096099509C092
:1037C00081E298E2F801918B808B80E098E0978706
:1037D0008687F80180899189938B828B918F808F66
:1037E00086859785978B868B0E94261F882339F0C4
:1037F0004B2DF7016289C7010E94BE1A01C080E00B
:103800002B960FB6F894DEBF0FBECDBFDF91CF91E0
:103810001F910F91FF90EF90DF90CF90BF90AF90EE
:103820000895DF92EF92FF920F931F93CF93DF9350
:10383000EC018B017A01D22E8D8181112FC0822F54
:103840008073803359F1FB01838D948D9C8F8B8F16
:1038500065E0440F551F6A95E1F760E070E0C8012C
:103860000E9415198823D1F0C8010E94CA18009738
:10387000A9F0FC018081882389F0853E79F08E32A1
:1038800069F06E2D6F704D2DCE01DF91CF911F919C
:103890000F91FF90EF90DF900C94BE1A80E0DF91C3
:1038A000CF911F910F91FF90EF90DF9008952F928D
:1038B0003F924F925F926F927F928F929F92AF92C0
:1038C000BF92CF92DF92EF92FF920F931F93CF930D
:1038D000DF9300D000D01F92CDB7DEB78C017B0103
:1038E0003A01DC0115968C9115978130C9F4149634
:1038F0008C9181FF15C082FF1BC0F8014389548958
:103900006589768982859385A485B5858417950711
:10391000A607B70769F0C8010E941519811108C0F0
:1039200081E090E0F8019383828380E090E046C1DB
:10393000630180C0D8015B968D919C915C97FC01DE
:10394000F481F150B501A40129E07695679557956A
:1039500047952A95D1F7F423FD8321E09222FF2396
:1039600009F474C080E092E08819990956018C1519
:103970009D0508F45C01D8015B96ED91FC915C9784
:1039800016962D903D904D905C901997B2E02B1AB1
:10399000310841085108058404C0220C331C441C22
:1039A000551C0A94D2F786859785A089B189280E7F
:1039B000391E4A1E5B1EED812E0E311C411C511C0E
:1039C000A114F2E0BF0609F088C080910601909131
:1039D0000701A0910801B091090182159305A40582
:1039E000B50559F48FEF9FEFDC01809306019093AA
:1039F0000701A0930801B09309019701B201A10149
:103A000080912403909125030E94E215882309F4F4
:103A100087CF9EEFF91ACA18DB08F80182859385D3
:103A2000A485B5858A0D9B1DA11DB11D8287938735
:103A3000A487B587D8011A968D909D90AD90BC90C3
:103A40001D97C114D10409F075CF8AC08114910467
:103A500009F088CF16964D915D916D917C911997E3
:103A6000411551056105710559F457968D919D9148
:103A70000D90BC91A02D0097A105B10541F521C085
:103A80009E012F5F3F4F0E94C21F882309F44ECF33
:103A900089819A81AB81BC81F801238D348DF90134
:103AA0002789203129F448EF5FEF60E070E004C01F
:103AB00048EF5FEF6FEF7FE084179507A607B70722
:103AC00030F0C8010E94301681114CCF29CFF80187
:103AD00086839783A087B18745CF8114910429F508
:103AE000D8011A964D915D916D917C911D975396D9
:103AF0008D919D910D90BC91A02D481759076A0793
:103B00007B0798F00E94261F882309F409CF209292
:103B100006013092070140920801509209018091FC
:103B2000230381608093230308C041E0C201B101F7
:103B30000E94611F882309F4F3CEC4018A5D9C4F63
:103B4000D7019C012A0D3B1DFC01E217F30719F078
:103B50004D914193FACFE81BF90BEE0EFF1E5BCFA0
:103B600053968D919D910D90BC91A02DF8012481CB
:103B700088159905AA05BB0538F4838A948AA58A15
:103B8000B68A206824830CC080911D0390911E0387
:103B9000892B31F06114710419F02068F801248335
:103BA000D80114968C9183FD02C0C30107C0C801DF
:103BB0000E94B119882309F4B3CEF7CF0F900F906C
:103BC0000F900F900F90DF91CF911F910F91FF9069
:103BD000EF90DF90CF90BF90AF909F908F907F90AD
:103BE0006F905F904F903F902F900895CF93DF9309
:103BF0001F92CDB7DEB7698341E050E0BE016F5F31
:103C00007F4F0E94571C0F90DF91CF910895DF9254
:103C1000EF92FF920F931F93CF93DF938C01D62ED9
:103C2000EC01E12CF12C8881803279F088E0E812F7
:103C300006C06EE280E395E00E94B128F3946881AB
:103C400080E395E00E94D426F394E3942196EBE080
:103C5000EE12E9CFF80183858871803131F46FE28B
:103C600080E395E00E94B128F394FD1410F460E223
:103C7000F7CFDF91CF911F910F91FF90EF90DF90E1
:103C800008952F923F924F925F926F927F928F9200
:103C90009F92AF92BF92CF92DF92EF92FF920F93DB
:103CA0001F93CF93DF93CDB7DEB7A0970FB6F894ED
:103CB000DEBF0FBECDBF7C01962EFC01168217829F
:103CC000108611861286138614861586C42ED12C72
:103CD000F62FF370FE8F862F8170282EE62FE4706A
:103CE000EF8F72E2A72E72E0B72EE2E08E2E840EE6
:103CF000F62FF270F8A3C7010E94CA188C01009732
:103D000009F48BC0F8018081882309F486C0853EC0
:103D100091F38E3281F3838583FDEDCF312C832D9A
:103D2000992787FD90958C159D053CF460E280E312
:103D300095E00E94B1283394F2CFFE8DFF2311F05D
:103D40006EE001C060E0C8010E94071E222079F0E9
:103D5000F801808D918D0E94771760E280E395E0F5
:103D60000E94B128F801868997890E949F17F8015F
:103D700083858871803119F0F8A1F1110FC080E3BB
:103D800095E00E94B8288F8D882309F4B4CFF801FC
:103D900083858871803109F0AECF11C060E280E385
:103DA00095E00E94B128F801448D558D668D778D80
:103DB0002AE030E080E395E00E949D29E0CFF70102
:103DC000428453846484758435E076946794579470
:103DD00047943A95D1F71C821B82BA82A9821E822F
:103DE000A2014150510921E0B701CE0101960E9484
:103DF000111C882331F0482D692DCE0101960E94B7
:103E0000411EA20165E0440F551F6A95E1F760E08D
:103E100070E0C7010E9415196ECFA0960FB6F894F6
:103E2000DEBF0FBECDBFDF91CF911F910F91FF90ED
:103E3000EF90DF90CF90BF90AF909F908F907F904A
:103E40006F905F904F903F902F9008958091230343
:103E5000882399F140910601509107016091080172
:103E60007091090126E233E08091240390912503AB
:103E70000E94E215882319F140911F0350912003FD
:103E8000609121037091220341155105610571056F
:103E900091F026E233E080912403909125030E9463
:103EA000E215882361F010921F03109220031092F4
:103EB0002103109222031092230381E0089580E0F1
:103EC0000895CF92DF92EF92FF92CF936B017C0126
:103ED000C42F8091060190910701A0910801B09133
:103EE00009018C159D05AE05BF05D1F00E94261F66
:103EF000811102C080E01AC026E233E0B701A601BA
:103F000080912403909125030E945A15882391F3F0
:103F1000C0920601D0920701E0920801F0920901D7
:103F2000809123038C2B8093230381E0CF91FF901A
:103F3000EF90DF90CF900895CF92DF92EF92FF92B3
:103F40006B017C010E94261F8823B1F0E6E2F3E0BA
:103F5000119285E0E632F807D9F7C0920601D092B7
:103F60000701E0920801F09209018091230381602A
:103F70008093230381E001C080E0FF90EF90DF9009
:103F8000CF9008958F929F92AF92BF92CF92DF927F
:103F9000EF92FF920F931F93CF93DF938C016A01EF
:103FA0007B01E901FC0181859285A385B485019699
:103FB000A11DB11D84179507A607B70710F480E06F
:103FC00058C0F80143895489658976898789803189
:103FD00029F4BB27AF2D9E2D8D2D09C0D701C60119
:103FE00027E0B695A795979587952A95D1F74C0127
:103FF0005D01840E951EA61EB71EC501B4018090FA
:10400000060190900701A0900801B0900901681581
:1040100079058A059B0589F4F8018789803199F42F
:10402000DD24EE24FF24F601EE0FFF1FEA5DFC4FB6
:1040300080819181A0E0B0E017C040E00E94611F44
:104040008111EACFBCCFE894C7F8DD24EE24FF2429
:10405000F601EE0FFF1FEE0FFF1FEA5DFC4F8081A0
:104060009181A281B381BF7088839983AA83BB8326
:1040700081E0DF91CF911F910F91FF90EF90DF9042
:10408000CF90BF90AF909F908F9008954F925F9286
:104090006F927F92AF92BF92CF92DF92EF92FF9298
:1040A0000F931F93CF93DF9300D000D0CDB7DEB72F
:1040B0008C0149835A836B837C835901C12CD12C99
:1040C0007601412C42E0542E612C712C49815A8199
:1040D0006B817C819E012F5F3F4FC8010E94C21FF0
:1040E000882359F1D301C201F801058404C0880F67
:1040F000991FAA1FBB1F0A94D2F7C80ED91EEA1E29
:10410000FB1E49815A816B817C818789803129F42A
:1041100088EF9FEFA0E0B0E004C088EF9FEFAFEF23
:10412000BFE0481759076A077B0780F2F501C08294
:10413000D182E282F38281E001C080E00F900F9093
:104140000F900F90DF91CF911F910F91FF90EF9003
:10415000DF90CF90BF90AF907F906F905F904F9027
:1041600008954F925F926F927F928F929F92AF923B
:10417000BF92CF92DF92EF92FF920F931F93CF9354
:10418000DF93EC016A017B012801390142305105BE
:104190006105710508F474C049855A856B857C8575
:1041A0004F5F5F4F6F4F7F4F4C155D056E057F056D
:1041B00008F466C08B889C88AD88BE888F89803162
:1041C00029F477276F2D5E2D4D2D09C0B701A6016B
:1041D000E7E07695679557954795EA95D1F7840E70
:1041E000951EA61EB71E40910601509107016091D1
:1041F00008017091090184169506A606B70671F4A8
:104200008F89803199F4DD24EE24FF24F601EE0F2E
:10421000FF1FEA5DFC4F5182408218C040E0C5019B
:10422000B4010E94611F8111EBCF2AC0E894C7F846
:10423000DD24EE24FF24F601EE0FFF1FEE0FFF1F1B
:10424000EA5DFC4F40825182628273828091230337
:104250008160809323038A89823080F08D819E81E2
:10426000AF81B885880D991DAA1DBB1D80931F03C2
:1042700090932003A0932103B093220381E001C017
:1042800080E0DF91CF911F910F91FF90EF90DF9031
:10429000CF90BF90AF909F908F907F906F905F90E6
:1042A0004F9008952F923F924F925F926F927F921C
:1042B0009F92AF92BF92CF92DF92EF92FF920F93B5
:1042C0001F93CF93DF93CDB7DEB760970FB6F89407
:1042D000DEBF0FBECDBF5C014D875E876F87788BD9
:1042E0001901D9014D905D906D907C90411451045D
:1042F0006104710431F0BFEF4B1A5B0A6B0A7B0A51
:1043000010C0FC0140805180628073809924939496
:104310000D851E852F853889013011052105310550
:1043200009F0912CD50119962D913D914D915C91FB
:104330001C972F5F3F4F4F4F5F4F29873A874B871F
:104340005C87730162011D821E821F821886F5013F
:1043500081859285A385B4850D811E812F81388545
:10436000081719072A073B0708F056C029853A8520
:104370004B855C852C153D054E055F0550F4A2E08C
:10438000CA2ED12CE12CF12CB2E04B2E512C612CF9
:10439000712C9E012F5F3F4FB701A601C5010E94FE
:1043A000C21F8823C9F149815A816B817C81D70161
:1043B000C6010196A11DB11D452B462B472B19F0B7
:1043C0002C013D010FC0AC01BD014419550966091E
:1043D00077090D851E852F8538894017510762079B
:1043E000730779F02D813E814F8158852F5F3F4FB4
:1043F0004F4F5F4F2D833E834F8358876C017D0164
:10440000A6CF0FEF1FEF2FEF3FE0B701A601C501C9
:104410000E94B120811118C080E041C0D701C601BF
:104420000197A109B1098D839E83AF83B887970156
:104430008601AC01BD01C5010E94B120882361F352
:10444000CD80DE80EF80F8844C145D046E047F0420
:1044500028F3D1014D915D916D917C9141155105EC
:104460006105710599F4F101408251826282738283
:104470009920A1F0FFEF4F1A5F0A6F0A7F0AD5015A
:104480004D925D926D927C92139708C093018201C8
:10449000C5010E94B1208111E6CFBECF81E06096B8
:1044A0000FB6F894DEBF0FBECDBFDF91CF911F9145
:1044B0000F91FF90EF90DF90CF90BF90AF909F90C3
:1044C0007F906F905F904F903F902F900895AF92A4
:1044D000BF92CF92DF92EF92FF920F931F93CF93F1
:1044E000DF9300D000D0CDB7DEB75C016A017B015D
:1044F00082E090E0A0E0B0E0F50180839183A283A8
:10450000B3839E012F5F3F4FB701A601C5010E94F3
:10451000C21F882311F100E010E09801B701A60145
:10452000C5010E94B1208823C1F0C980DA80EB80E8
:10453000FC80F5018789803129F488EF9FEFA0E0A6
:10454000B0E004C088EF9FEFAFEFBFE0C816D90618
:10455000EA06FB06B0F281E001C080E00F900F9008
:104560000F900F90DF91CF911F910F91FF90EF90DF
:10457000DF90CF90BF90AF9008958F929F92AF92AF
:10458000BF92CF92DF92EF92FF920F931F93CF9340
:10459000DF93EC01142F70932503609324034423CD
:1045A00041F1453010F080E0EFC040E060E070E0A5
:1045B000CB010E94611F8823B1F320E1129FF0011B
:1045C0001124EC52FB4F80818F7769F784859585A4
:1045D000A685B78584369105A105B10520F3C08471
:1045E000D184E284F384C114D104E104F10421F400
:1045F000DACFC12CD12C760140E0C701B6010E9470
:10460000611F882381F280913103909132038115DB
:10461000924049F630913603332329F280913403D6
:1046200090913503892B09F4BECF209133032223C7
:1046300009F4B9CF3A8B2C831D8630E041E050E07D
:104640006D85062FCA01062E02C0880F991F0A9495
:10465000E2F72817390731F081E0860F8D8768303F
:1046600078F3A1CF20913C0330913D032115310512
:1046700019F040E050E008C020914A0330914B030C
:1046800040914C0350914D032D833E834F835887B7
:10469000809134039091350346015701880E991E8D
:1046A000A11CB11C8B8A9C8AAD8ABE8AE09137031B
:1046B000F0913803F98FE88FA0913603B0E00E94A3
:1046C000562E680D791D8A1D9B1D6A8F7B8F8C8FDE
:1046D0009D8F15E0EE0FFF1F1A95E1F7E150FE4F99
:1046E000EF2FFF27E695DC01CB018E0F9F1FA11D49
:1046F000B11D8E879F87A88BB98B809039039090CE
:104700003A038114910419F0A12CB12C08C08090B7
:10471000460390904703A0904803B0904903A70137
:104720009601281B390B4A0B5B0BDA01C901880D76
:10473000991DAA1DBB1D04C0B695A7959795879591
:104740000A95D2F789879A87AB87BC87853F3FE078
:104750009307A105B10510F48CE014C0853F9F4F6D
:10476000A105B10510F480E10DC080915203909134
:104770005303A0915403B09155038A8F9B8FAC8F44
:10478000BD8F80E28F8B81E0DF91CF911F910F91E0
:10479000FF90EF90DF90CF90BF90AF909F908F9061
:1047A00008956AE00E94132E20E1829F900D11244B
:1047B000892F0895982F92959F708F702AE0929F6D
:1047C000800D112408958FE492E00C94DC09CF93BE
:1047D000DF93EC0168E670E08FE492E00E94F0095C
:1047E00060E08FE492E00E949D0988810E94D123BD
:1047F000682F8FE492E00E949D0989810E94D12355
:10480000682F8FE492E00E949D098A810E94D12343
:10481000682F8FE492E00E949D098B810E94D12332
:10482000682F8FE492E00E949D098C810E94D12321
:10483000682F8FE492E00E949D098D810E94D12310
:10484000682F8FE492E00E949D098E818E510E9414
:10485000D123682F8FE492E00E949D098FE492E0BB
:104860000E94690A882321F01092260580E003C087
:1048700081E080932605DF91CF9108951F93CF9318
:10488000DF93EC0168E670E08FE492E00E94F009AB
:1048900060E08FE492E00E949D098FE492E00E9424
:1048A000690A882319F0109226054CC081E0809394
:1048B000260547E050E068E670E08FE492E00E9451
:1048C000660A8FE492E00E9445090797DCF18FE4C5
:1048D00092E00E944D09182F8F770E94DA23888377
:1048E0008FE492E00E944D090E94DA2389838FE4CD
:1048F00092E00E944D098F730E94DA238A838FE42D
:1049000092E00E944D090E94DA238B838FE492E0AB
:104910000E944D090E94DA238C838FE492E00E946A
:104920004D090E94DA238D838FE492E00E944D09A5
:104930000E94DA23825E8E83812F8095881F8827CC
:10494000881F01C080E0DF91CF911F9108951F92D1
:104950000F920FB60F9211242F933F938F939F9333
:10496000AF93BF938091280590912905A0912A05C6
:10497000B0912B053091270523E0230F2D3720F42C
:104980000196A11DB11D05C026E8230F0296A11DA9
:10499000B11D209327058093280590932905A093A6
:1049A0002A05B0932B0580912C0590912D05A0919F
:1049B0002E05B0912F050196A11DB11D80932C05E8
:1049C00090932D05A0932E05B0932F05BF91AF9125
:1049D0009F918F913F912F910F900FBE0F901F903D
:1049E00018952FB7F894609128057091290580914A
:1049F0002A0590912B052FBF08953FB7F894809119
:104A00002C0590912D05A0912E05B0912F0526B56E
:104A1000A89B05C02F3F19F00196A11DB11D3FBFF6
:104A20006627782F892F9A2F620F711D811D911D86
:104A300042E0660F771F881F991F4A95D1F70895A6
:104A40008F929F92AF92BF92CF92DF92EF92FF929E
:104A50006B017C010E94FD244B015C01C114D10457
:104A6000E104F104F1F00E94F32B0E94FD24681987
:104A700079098A099B09683E73408105910570F3A5
:104A800021E0C21AD108E108F10888EE880E83E01F
:104A9000981EA11CB11CC114D104E104F10429F732
:104AA000DDCFFF90EF90DF90CF90BF90AF909F90C1
:104AB0008F900895789484B5826084BD84B58160B8
:104AC00084BD85B5826085BD85B5816085BDEEE616
:104AD000F0E0808181608083E1E8F0E010828081F5
:104AE00082608083808181608083E0E8F0E0808163
:104AF00081608083E1EBF0E0808184608083E0EB83
:104B0000F0E0808181608083EAE7F0E0808184606A
:104B100080838081826080838081816080838081C6
:104B2000806880831092C1000895833081F028F45A
:104B3000813099F08230A1F008958730A9F0883053
:104B4000B9F08430D1F4809180008F7D03C08091D2
:104B500080008F7780938000089584B58F7702C09E
:104B600084B58F7D84BD08958091B0008F7703C098
:104B70008091B0008F7D8093B0000895CF93DF9334
:104B800090E0FC01ED5CFA4F2491FC01E95BFA4FE7
:104B90008491882349F190E0880F991FFC01E15925
:104BA000FA4FA591B4918B599A4FFC01C591D491BC
:104BB0009FB7611108C0F8948C91209582238C9343
:104BC000888182230AC0623051F4F8948C91322F8C
:104BD000309583238C938881822B888304C0F8943A
:104BE0008C91822B8C939FBFDF91CF9108950F936F
:104BF0001F93CF93DF931F92CDB7DEB7282F30E0FE
:104C0000F901E15EFA4F8491F901ED5CFA4F1491DC
:104C1000F901E95BFA4F04910023C9F0882321F0E0
:104C200069830E9495256981E02FF0E0EE0FFF1F58
:104C3000EB59FA4FA591B4919FB7F8948C916111FB
:104C400003C01095812301C0812B8C939FBF0F90CF
:104C5000DF91CF911F910F910895CF93DF93282F6C
:104C600030E0F901E15EFA4F8491F901ED5CFA4F11
:104C7000D491F901E95BFA4FC491CC2391F08111F1
:104C80000E949525EC2FF0E0EE0FFF1FE55AFA4F3A
:104C9000A591B4912C912D2381E090E021F480E046
:104CA00002C080E090E0DF91CF910895FC01818DFA
:104CB000228D90E0805C9F4F821B91098F73992712
:104CC0000895FC01918D828D981731F0828DE80F47
:104CD000F11D858D90E008958FEF9FEF0895FC0101
:104CE000918D828D981761F0828DDF01A80FB11D23
:104CF0005D968C91928D9F5F9F73928F90E0089547
:104D00008FEF9FEF089583EF97E2892B49F080E0C2
:104D100090E0892B29F00E94F32781110C94000068
:104D20000895FC01848DDF01A80FB11DA35ABF4F68
:104D30002C91848D90E001968F739927848FA6899A
:104D4000B7892C93A089B1898C9180648C93938DC1
:104D5000848D981306C00288F389E02D80818F7DB1
:104D600080830895CF93DF93EC01888D8823C9F069
:104D7000EA89FB89808185FD05C0A889B9898C9164
:104D800086FD0FC00FB607FCF5CF808185FFF2CFFF
:104D9000A889B9898C9185FFEDCFCE010E9491261B
:104DA000E7CFDF91CF910895CF92DF92FF920F93DB
:104DB0001F93CF93DF931F92CDB7DEB76C0181E0D5
:104DC000D60158968C9358975B969C915B975C960E
:104DD0008C915C97981307C05096ED91FC91519778
:104DE000808185FD2EC0F601038D10E00F5F1F4FFF
:104DF0000F731127F02EF601848DF81211C00FB633
:104E000007FCF9CFD6015096ED91FC915197808126
:104E100085FFF1CFC60169830E9491266981EBCF9E
:104E2000838DE80FF11DE35AFF4F6083D6015B9637
:104E30000C935B975296ED91FC9153978081806221
:104E40000CC0D6015696ED91FC9157976083509611
:104E5000ED91FC91519780818064808381E090E0A6
:104E60000F90DF91CF911F910F91FF90DF90CF9026
:104E70000895BF92CF92DF92EF92FF92CF93DF938C
:104E8000EC016A017B01B22EE889F98982E0808316
:104E9000411581EE580761057105A1F060E079E0E8
:104EA0008DE390E0A70196010E941F2E2150310949
:104EB000410951095695479537952795211580E168
:104EC000380798F0E889F989108260E874E88EE183
:104ED00090E0A70196010E941F2E2150310941093F
:104EE00051095695479537952795EC85FD85308373
:104EF000EE85FF852083188EEC89FD89B082EA89D2
:104F0000FB89808180618083EA89FB898081886058
:104F10008083EA89FB89808180688083EA89FB89B4
:104F200080818F7D8083DF91CF91FF90EF90DF9024
:104F3000CF90BF9008951F920F920FB60F92112439
:104F40002F938F939F93EF93FF93E0914005F09100
:104F500041058081E0914605F091470582FD12C030
:104F60009081809149058F5F8F7320914A05821748
:104F700051F0E0914905F0E0E05DFA4F958F8093A4
:104F8000490501C08081FF91EF919F918F912F91F1
:104F90000F900FBE0F901F9018951F920F920FB693
:104FA0000F9211242F933F934F935F936F937F93AF
:104FB0008F939F93AF93BF93EF93FF9380E395E01D
:104FC0000E949126FF91EF91BF91AF919F918F9198
:104FD0007F916F915F914F913F912F910F900FBEF5
:104FE0000F901F90189580E395E00E94562621E0CF
:104FF000892B09F420E0822F089510923305109236
:10500000320588EE93E0A0E0B0E080933405909301
:105010003505A0933605B09337058AE292E0909368
:1050200031058093300585EC90E090933D058093A9
:105030003C0584EC90E090933F0580933E0580EC26
:1050400090E0909341058093400581EC90E090932F
:1050500043058093420582EC90E090934505809350
:10506000440586EC90E090934705809346051092A6
:10507000490510924A0510924B0510924C0508956F
:10508000CF92DF92EF92FF920F931F93CF93DF9314
:105090007C016A01EB0100E010E00C151D0571F0C8
:1050A0006991D701ED91FC910190F081E02DC7014C
:1050B0000995892B19F00F5F1F4FEFCFC801DF91C2
:1050C000CF911F910F91FF90EF90DF90CF900895B7
:1050D0006115710581F0DB010D900020E9F7AD014C
:1050E00041505109461B570BDC01ED91FC910280A8
:1050F000F381E02D099480E090E00895EF92FF9213
:105100000F931F93CF93DF938C017B01C0E0D0E01E
:10511000F701EC0FFD1F6491662359F0F801A0819F
:10512000B181ED91FC91C8010995892B11F021966F
:10513000EFCFCE01DF91CF911F910F91FF90EF90B4
:105140000895DC01ED91FC91DB0114964D915C9189
:1051500015976D917C910280F381E02D09940C9458
:105160006828DC01ED91FC910190F081E02D09941B
:1051700066E372E00C9468280F931F93CF93DF933C
:10518000EC010E947E288C01CE010E94B828800F7D
:10519000911FDF91CF911F910F9108950F931F934E
:1051A000CF93DF93EC010E94A1288C01CE010E94D5
:1051B000B828800F911FDF91CF911F910F91089513
:1051C0000F931F93CF93DF93EC010E9468288C010B
:1051D000CE010E94B828800F911FDF91CF911F91BF
:1051E0000F9108958F929F92AF92BF92DF92EF92AC
:1051F000FF920F931F93CF93DF93CDB7DEB7A197A5
:105200000FB6F894DEBF0FBECDBF7C01F42FD52EB4
:10521000CB0119A2223008F42AE08E010F5D1F4F46
:10522000822E912CA12CB12C6F2F7D2DA5019401E4
:105230000E941F2EF22FD32ECA01015011096A308D
:1052400014F4E0E301C0E7E3E60FD801EC93232B6D
:10525000242B252B49F7B801C7010E946828A19685
:105260000FB6F894DEBF0FBECDBFDF91CF911F9177
:105270000F91FF90EF90DF90BF90AF909F908F9035
:105280000895CF92DF92EF92FF920F931F93CF93E7
:10529000DF93EC016A017B012115310579F4E88186
:1052A000F9810190F081E02D642FDF91CF911F9162
:1052B0000F91FF90EF90DF90CF9009942A30310545
:1052C000E9F477FF1AC06DE20E94B1288C014427EF
:1052D0005527BA014C195D096E097F092AE0CE01F4
:1052E0000E94F228800F911FDF91CF911F910F91A3
:1052F000FF90EF90DF90CF9008952AE0B701A601CC
:10530000CE01DF91CF911F910F91FF90EF90DF9031
:10531000CF900C94F2280F931F93CF93DF93EC015F
:105320000E9441298C01CE010E94B828800F911F54
:10533000DF91CF911F910F9108952115310541F40F
:10534000DC01ED91FC910190F081E02D642F099436
:105350000C94F2289A01462F50E060E070E00C9423
:105360009D290F931F93CF93DF93EC019A01462F52
:1053700050E060E070E00E949D298C01CE010E9407
:10538000B828800F911FDF91CF911F910F91089541
:105390009A01AB0160E070E00C949D290F931F937C
:1053A000CF93DF93EC010E949D298C01CE010E94D6
:1053B000B828800F911FDF91CF911F910F91089511
:1053C0004F925F926F927F928F929F92AF92BF9215
:1053D000CF92DF92EF92FF920F931F93CF93DF93C1
:1053E000EC016A017B01B22E9A01AB01C701B60143
:1053F0000E940F2E882319F069E372E027C026016E
:105400003701E89477F82FEF3FEF4FE75FE7C301ED
:10541000B2010E940F2E81110DC02FEF3FEF4FE719
:105420005FE7C301B2010E94592C18161CF46DE30A
:1054300072E00CC02FEF3FEF4FE75FE4C701B6010A
:105440000E94A82D1816ACF461E472E0CE01DF9141
:10545000CF911F910F91FF90EF90DF90CF90BF9071
:10546000AF909F908F907F906F905F904F900C9433
:1054700068282FEF3FEF4FE75FECC701B6010E94AE
:10548000592C87FDE1CF20E030E0A901C701B6012A
:105490000E94592C87FF0AC06DE2CE010E94B128FC
:1054A0008C01F7FAF094F7F8F09402C000E010E0F5
:1054B000A12C60E070E080E09FE3AB1441F020E0BD
:1054C00030E040E251E40E945D2CA394F6CF9B01B2
:1054D000AC01C701B6010E94F52B6B017C010E9453
:1054E000CA2C2B013C010E94F62C9B01AC01C70188
:1054F000B6010E94F42B6B017C012AE0B301A201EA
:10550000CE010E94F228080F191FBB2039F06AEC67
:1055100071E0CE010E946828080F191F7B2C7720AC
:1055200041F120E030E040E251E4C701B6010E94C1
:10553000AC2D6B017C010E94C52C4B01AA2497FC69
:10554000A094BA2C2AE030E0B501A401CE010E945B
:105550004129080F191FC501B4010E94F82C9B01B5
:10556000AC01C701B6010E94F42B6B017C017A9457
:10557000D6CFC801DF91CF911F910F91FF90EF908F
:10558000DF90CF90BF90AF909F908F907F906F9063
:105590005F904F9008950C94E0290F931F93CF9341
:1055A000DF93EC010E94E0298C01CE010E94B82813
:1055B000800F911FDF91CF911F910F910895FC01F2
:1055C000808191810C94F92ECF93DF93EC01888137
:1055D0009981009711F00E94F92E198218821D827C
:1055E0001C821B821A82DF91CF9108950F931F9323
:1055F000CF93DF93EC018B016F5F7F4F888199819F
:105600000E94882F009731F0998388831B830A8337
:1056100081E001C080E0DF91CF911F910F9108954B
:10562000CF93DF93EC0188819981892B29F08A81BE
:105630009B818617970760F4CE010E94F62A882383
:1056400041F08C819D81892B19F4E881F9811082C8
:1056500081E0DF91CF910895EF92FF920F931F9316
:10566000CF93DF93EC017B018A01BA010E94102BDA
:10567000811104C0CE010E94E42A07C01D830C835F
:10568000B701888199810E949930CE01DF91CF9135
:105690001F910F91FF90EF900895FC0111821082ED
:1056A00013821282158214826115710559F0FB0173
:1056B00001900020E9F7AF0141505109461B570BFB
:1056C0000C942C2B0895EF92FF920F931F93CF937E
:1056D000DF93EC017B018A01BA010E94102B81113A
:1056E00004C0CE010E94E42A07C01D830C83B701C9
:1056F000888199810E945F30CE01DF91CF911F9107
:105700000F91FF90EF9008950F931F93CF93DF9326
:1057100000D0CDB7DEB78C016115710561F0CB010A
:1057200069837A830E946630AC0169817A81C801FD
:105730000E94632B02C00E94E42AC8010F900F90C0
:10574000DF91CF911F910F910895FC01118210827A
:1057500013821282158214820C94842BFC01248102
:105760003581232B31F421E061157105A1F0FB0196
:1057700008C0FC01808191816115710531F421E03F
:10578000FC018081882339F005C00E94903021E01F
:10579000892B09F020E0822F0895FC0184819581F6
:1057A0006817790720F480819181009729F410927D
:1057B000CD058DEC95E00895860F971F08950E9402
:1057C000523008950E945A250E94E12B0E944208FF
:1057D000C3E8D6E20E94E8082097E1F30E948326FE
:1057E000F9CF0C94F92E08955058BB27AA270ED054
:1057F00075C166D130F06BD120F031F49F3F11F4C8
:105800001EF45BC10EF4E095E7FB51C1E92F77D19F
:1058100080F3BA17620773078407950718F071F4CD
:105820009EF58FC10EF4E0950B2EBA2FA02D0B0123
:10583000B90190010C01CA01A0011124FF27591BD5
:1058400099F0593F50F4503E68F11A16F040A22FDB
:10585000232F342F4427585FF3CF4695379527954C
:10586000A795F0405395C9F77EF41F16BA0B620B4B
:10587000730B840BBAF09150A1F0FF0FBB1F661F92
:10588000771F881FC2F70EC0BA0F621F731F841FD5
:1058900048F4879577956795B795F7959E3F08F0FB
:1058A000B3CF9395880F08F09927EE0F97958795BA
:1058B0000895D9D008F481E008950CD00FC107D124
:1058C00040F0FED030F021F45F3F19F0F0C05111EC
:1058D00039C1F3C014D198F39923C9F35523B1F317
:1058E000951B550BBB27AA2762177307840738F04F
:1058F0009F5F5F4F220F331F441FAA1FA9F333D0AE
:105900000E2E3AF0E0E830D091505040E695001C61
:10591000CAF729D0FE2F27D0660F771F881FBB1F1D
:10592000261737074807AB07B0E809F0BB0B802DF7
:10593000BF01FF2793585F4F2AF09E3F510568F043
:10594000B6C000C15F3FECF3983EDCF386957795D7
:105950006795B795F7959F5FC9F7880F911D969545
:10596000879597F90895E1E0660F771F881FBB1FA1
:10597000621773078407BA0720F0621B730B840B4E
:10598000BA0BEE1F88F7E095089504D06894B11122
:10599000D9C00895BCD088F09F5790F0B92F9927AF
:1059A000B751A0F0D1F0660F771F881F991F1AF02A
:1059B000BA95C9F712C0B13081F0C3D0B1E00895F3
:1059C000C0C0672F782F8827B85F39F0B93FCCF374
:1059D000869577956795B395D9F73EF49095809520
:1059E000709561957F4F8F4F9F4F0895E89409C040
:1059F00097FB3EF490958095709561957F4F8F4F02
:105A00009F4F9923A9F0F92F96E9BB279395F69517
:105A1000879577956795B795F111F8CFFAF4BB0F95
:105A200011F460FF1BC06F5F7F4F8F4F9F4F16C0F9
:105A3000882311F096E911C0772321F09EE8872F83
:105A4000762F05C0662371F096E8862F70E060E03F
:105A50002AF09A95660F771F881FDAF7880F9695B8
:105A6000879597F90895990F0008550FAA0BE0E85C
:105A7000FEEF16161706E807F907C0F01216130610
:105A8000E407F50798F0621B730B840B950B39F450
:105A90000A2661F0232B242B252B21F408950A26B6
:105AA00009F4A140A6958FEF811D811D089597F9F6
:105AB0009F6780E870E060E008959FEF80EC0895B4
:105AC00000240A94161617061806090608950024DD
:105AD0000A9412161306140605060895092E039457
